{
  "contractName": "MobilePurchase",
  "abi": [
    {
      "inputs": [
        {
          "internalType": "uint256",
          "name": "newPrice",
          "type": "uint256"
        }
      ],
      "stateMutability": "nonpayable",
      "type": "constructor"
    },
    {
      "anonymous": false,
      "inputs": [
        {
          "indexed": false,
          "internalType": "string",
          "name": "typeOfEvent",
          "type": "string"
        },
        {
          "indexed": false,
          "internalType": "uint256",
          "name": "price",
          "type": "uint256"
        }
      ],
      "name": "AvailableForSale",
      "type": "event"
    },
    {
      "anonymous": false,
      "inputs": [
        {
          "indexed": false,
          "internalType": "string",
          "name": "typeOfEvent",
          "type": "string"
        },
        {
          "indexed": false,
          "internalType": "uint256",
          "name": "newPrice",
          "type": "uint256"
        }
      ],
      "name": "PriceChanged",
      "type": "event"
    },
    {
      "inputs": [],
      "name": "price",
      "outputs": [
        {
          "internalType": "uint256",
          "name": "",
          "type": "uint256"
        }
      ],
      "stateMutability": "view",
      "type": "function",
      "constant": true
    },
    {
      "inputs": [
        {
          "internalType": "uint256",
          "name": "newPrice",
          "type": "uint256"
        }
      ],
      "name": "changePrice",
      "outputs": [],
      "stateMutability": "nonpayable",
      "type": "function"
    }
  ],
  "bytecode": "0x608060405234801561001057600080fd5b506040516103fe3803806103fe83398181016040528101906100329190610097565b60008111610075576040517f08c379a000000000000000000000000000000000000000000000000000000000815260040161006c90610100565b60405180910390fd5b8060008190555050610152565b6000815190506100918161013b565b92915050565b6000602082840312156100a957600080fd5b60006100b784828501610082565b91505092915050565b60006100cd601f83610120565b91507f5072696365206d7573742062652067726561746572207468616e207a65726f006000830152602082019050919050565b60006020820190508181036000830152610119816100c0565b9050919050565b600082825260208201905092915050565b6000819050919050565b61014481610131565b811461014f57600080fd5b50565b61029d806101616000396000f3fe608060405234801561001057600080fd5b50600436106100365760003560e01c8063a035b1fe1461003b578063a2b40d1914610059575b600080fd5b610043610075565b604051610050919061021a565b60405180910390f35b610073600480360381019061006e9190610114565b61007b565b005b60005481565b600081116100be576040517f08c379a00000000000000000000000000000000000000000000000000000000081526004016100b5906101fa565b60405180910390fd5b806000819055507f29ecd1e0988af1492e43256007437db411881757b3e6e808c9f04847b264178c816040516100f491906101cc565b60405180910390a150565b60008135905061010e81610250565b92915050565b60006020828403121561012657600080fd5b6000610134848285016100ff565b91505092915050565b600061014a600d83610235565b91507f50524943455f4348414e474544000000000000000000000000000000000000006000830152602082019050919050565b600061018a601f83610235565b91507f5072696365206d7573742062652067726561746572207468616e207a65726f006000830152602082019050919050565b6101c681610246565b82525050565b600060408201905081810360008301526101e58161013d565b90506101f460208301846101bd565b92915050565b600060208201905081810360008301526102138161017d565b9050919050565b600060208201905061022f60008301846101bd565b92915050565b600082825260208201905092915050565b6000819050919050565b61025981610246565b811461026457600080fd5b5056fea2646970667358221220898a74d4c9cc609f412ca6d90c400dab1544ed9add424566bd4730047023014264736f6c63430008000033",
  "immutableReferences": {},
  "source": "// SPDX-License-Identifier: MIT\r\n\r\npragma solidity ^0.8.0;\r\n\r\ncontract MobilePurchase {\r\n    uint public price ;\r\n\r\n    event PriceChanged(string typeOfEvent, uint newPrice);\r\n    event AvailableForSale(string typeOfEvent, uint  price);\r\n\r\n    constructor(uint  newPrice) {\r\n        require(newPrice > 0, \"Price must be greater than zero\");\r\n        price = newPrice;\r\n    }\r\n\r\nfunction changePrice (uint newPrice) public {\r\n        require(newPrice > 0, \"Price must be greater than zero\");\r\n        price = newPrice;\r\n        emit PriceChanged('PRICE_CHANGED',newPrice);\r\n    }\r\n}",
  "sourcePath": "C:\\Users\\Rishabh\\Desktop\\submission\\smart-contract\\contracts\\Mobile.sol",
  "compiler": {
    "name": "solc",
    "version": "0.8.0+commit.c7dfd78e.Emscripten.clang"
  },
  "schemaVersion": "3.4.16",
  "updatedAt": "2024-08-02T03:28:47.340Z",
  "networkType": "ethereum",
  "devdoc": {
    "kind": "dev",
    "methods": {},
    "version": 1
  },
  "userdoc": {
    "kind": "user",
    "methods": {},
    "version": 1
  }
}