{
  "contractName": "MobilePurchase",
  "abi": [
    {
      "inputs": [
        {
          "internalType": "uint256",
          "name": "newPrice",
          "type": "uint256"
        }
      ],
      "stateMutability": "nonpayable",
      "type": "constructor"
    },
    {
      "anonymous": false,
      "inputs": [
        {
          "indexed": false,
          "internalType": "string",
          "name": "typeOfEvent",
          "type": "string"
        },
        {
          "indexed": false,
          "internalType": "uint256",
          "name": "price",
          "type": "uint256"
        }
      ],
      "name": "AvailableForSale",
      "type": "event"
    },
    {
      "anonymous": false,
      "inputs": [
        {
          "indexed": false,
          "internalType": "string",
          "name": "typeOfEvent",
          "type": "string"
        },
        {
          "indexed": false,
          "internalType": "uint256",
          "name": "newPrice",
          "type": "uint256"
        },
        {
          "indexed": false,
          "internalType": "string",
          "name": "transactionid",
          "type": "string"
        }
      ],
      "name": "PriceChanged",
      "type": "event"
    },
    {
      "inputs": [],
      "name": "price",
      "outputs": [
        {
          "internalType": "uint256",
          "name": "",
          "type": "uint256"
        }
      ],
      "stateMutability": "view",
      "type": "function",
      "constant": true
    },
    {
      "inputs": [],
      "name": "transactionId",
      "outputs": [
        {
          "internalType": "string",
          "name": "",
          "type": "string"
        }
      ],
      "stateMutability": "view",
      "type": "function",
      "constant": true
    },
    {
      "inputs": [
        {
          "internalType": "uint256",
          "name": "newPrice",
          "type": "uint256"
        },
        {
          "internalType": "string",
          "name": "uniqueId",
          "type": "string"
        }
      ],
      "name": "changePrice",
      "outputs": [],
      "stateMutability": "nonpayable",
      "type": "function"
    }
  ],
  "bytecode": "0x608060405234801561001057600080fd5b5060405161070a38038061070a83398181016040528101906100329190610097565b60008111610075576040517f08c379a000000000000000000000000000000000000000000000000000000000815260040161006c90610100565b60405180910390fd5b8060008190555050610152565b6000815190506100918161013b565b92915050565b6000602082840312156100a957600080fd5b60006100b784828501610082565b91505092915050565b60006100cd601f83610120565b91507f5072696365206d7573742062652067726561746572207468616e207a65726f006000830152602082019050919050565b60006020820190508181036000830152610119816100c0565b9050919050565b600082825260208201905092915050565b6000819050919050565b61014481610131565b811461014f57600080fd5b50565b6105a9806101616000396000f3fe608060405234801561001057600080fd5b50600436106100415760003560e01c80637e2f42e7146100465780638868686c14610064578063a035b1fe14610080575b600080fd5b61004e61009e565b60405161005b9190610352565b60405180910390f35b61007e60048036038101906100799190610236565b61012c565b005b6100886101b3565b60405161009591906103d7565b60405180910390f35b600180546100ab906104bb565b80601f01602080910402602001604051908101604052809291908181526020018280546100d7906104bb565b80156101245780601f106100f957610100808354040283529160200191610124565b820191906000526020600020905b81548152906001019060200180831161010757829003601f168201915b505050505081565b6000821161016f576040517f08c379a0000000000000000000000000000000000000000000000000000000008152600401610166906103b7565b60405180910390fd5b816000819055507f6ffed331ef39b822bc57387e952b5983013db38c229fb281ee95fc94c96f85e182826040516101a7929190610374565b60405180910390a15050565b60005481565b60006101cc6101c784610423565b6103f2565b9050828152602081018484840111156101e457600080fd5b6101ef848285610479565b509392505050565b600082601f83011261020857600080fd5b81356102188482602086016101b9565b91505092915050565b6000813590506102308161055c565b92915050565b6000806040838503121561024957600080fd5b600061025785828601610221565b925050602083013567ffffffffffffffff81111561027457600080fd5b610280858286016101f7565b9150509250929050565b600061029582610453565b61029f818561045e565b93506102af818560208601610488565b6102b88161054b565b840191505092915050565b60006102d0600d8361045e565b91507f50524943455f4348414e474544000000000000000000000000000000000000006000830152602082019050919050565b6000610310601f8361045e565b91507f5072696365206d7573742062652067726561746572207468616e207a65726f006000830152602082019050919050565b61034c8161046f565b82525050565b6000602082019050818103600083015261036c818461028a565b905092915050565b6000606082019050818103600083015261038d816102c3565b905061039c6020830185610343565b81810360408301526103ae818461028a565b90509392505050565b600060208201905081810360008301526103d081610303565b9050919050565b60006020820190506103ec6000830184610343565b92915050565b6000604051905081810181811067ffffffffffffffff821117156104195761041861051c565b5b8060405250919050565b600067ffffffffffffffff82111561043e5761043d61051c565b5b601f19601f8301169050602081019050919050565b600081519050919050565b600082825260208201905092915050565b6000819050919050565b82818337600083830152505050565b60005b838110156104a657808201518184015260208101905061048b565b838111156104b5576000848401525b50505050565b600060028204905060018216806104d357607f821691505b602082108114156104e7576104e66104ed565b5b50919050565b7f4e487b7100000000000000000000000000000000000000000000000000000000600052602260045260246000fd5b7f4e487b7100000000000000000000000000000000000000000000000000000000600052604160045260246000fd5b6000601f19601f8301169050919050565b6105658161046f565b811461057057600080fd5b5056fea2646970667358221220bea8bf55be5eb13756165819dd03c2cacfbc0de20ba71a7f431c1562950e20a364736f6c63430008000033",
  "immutableReferences": {},
  "source": "// SPDX-License-Identifier: MIT\r\n\r\npragma solidity ^0.8.0;\r\n\r\ncontract MobilePurchase {\r\n    uint public price ;\r\n    string public transactionId;\r\n\r\n    event PriceChanged(string typeOfEvent, uint newPrice, string transactionid);\r\n    event AvailableForSale(string typeOfEvent, uint  price);\r\n\r\n    constructor(uint  newPrice) {\r\n        require(newPrice > 0, \"Price must be greater than zero\");\r\n        price = newPrice;\r\n    }\r\n\r\nfunction changePrice (uint newPrice, string memory uniqueId) public {\r\n        require(newPrice > 0, \"Price must be greater than zero\");\r\n        price = newPrice;\r\n        emit PriceChanged('PRICE_CHANGED',newPrice, uniqueId);\r\n    }\r\n}",
  "sourcePath": "C:\\Users\\Rishabh\\Desktop\\submission\\smart-contract\\contracts\\Mobile.sol",
  "compiler": {
    "name": "solc",
    "version": "0.8.0+commit.c7dfd78e.Emscripten.clang"
  },
  "schemaVersion": "3.4.16",
  "updatedAt": "2024-08-02T04:05:18.392Z",
  "networkType": "ethereum",
  "devdoc": {
    "kind": "dev",
    "methods": {},
    "version": 1
  },
  "userdoc": {
    "kind": "user",
    "methods": {},
    "version": 1
  }
}